{
  "contractName": "VotingContract",
  "abi": [
    {
      "constant": true,
      "inputs": [
        {
          "name": "",
          "type": "address"
        }
      ],
      "name": "voterStructs",
      "outputs": [
        {
          "name": "voterAddress",
          "type": "address"
        },
        {
          "name": "candidateVotedFor",
          "type": "bytes32"
        },
        {
          "name": "exists",
          "type": "bool"
        }
      ],
      "payable": false,
      "stateMutability": "view",
      "type": "function"
    },
    {
      "constant": true,
      "inputs": [],
      "name": "chairman",
      "outputs": [
        {
          "name": "",
          "type": "address"
        }
      ],
      "payable": false,
      "stateMutability": "view",
      "type": "function"
    },
    {
      "constant": true,
      "inputs": [
        {
          "name": "",
          "type": "uint256"
        }
      ],
      "name": "candidateList",
      "outputs": [
        {
          "name": "",
          "type": "bytes32"
        }
      ],
      "payable": false,
      "stateMutability": "view",
      "type": "function"
    },
    {
      "inputs": [
        {
          "name": "_name",
          "type": "bytes32"
        },
        {
          "name": "_description",
          "type": "bytes32"
        },
        {
          "name": "_candidateList",
          "type": "bytes32[]"
        }
      ],
      "payable": false,
      "stateMutability": "nonpayable",
      "type": "constructor"
    },
    {
      "constant": true,
      "inputs": [],
      "name": "getName",
      "outputs": [
        {
          "name": "",
          "type": "bytes32"
        }
      ],
      "payable": false,
      "stateMutability": "view",
      "type": "function"
    },
    {
      "constant": true,
      "inputs": [],
      "name": "getDescription",
      "outputs": [
        {
          "name": "",
          "type": "bytes32"
        }
      ],
      "payable": false,
      "stateMutability": "view",
      "type": "function"
    },
    {
      "constant": true,
      "inputs": [],
      "name": "getCandidates",
      "outputs": [
        {
          "name": "",
          "type": "bytes32[]"
        }
      ],
      "payable": false,
      "stateMutability": "view",
      "type": "function"
    },
    {
      "constant": true,
      "inputs": [],
      "name": "getChairmanAddress",
      "outputs": [
        {
          "name": "",
          "type": "address"
        }
      ],
      "payable": false,
      "stateMutability": "view",
      "type": "function"
    },
    {
      "constant": false,
      "inputs": [
        {
          "name": "candidate",
          "type": "bytes32"
        }
      ],
      "name": "vote",
      "outputs": [
        {
          "name": "",
          "type": "bool"
        }
      ],
      "payable": false,
      "stateMutability": "nonpayable",
      "type": "function"
    },
    {
      "constant": true,
      "inputs": [
        {
          "name": "index",
          "type": "uint256"
        }
      ],
      "name": "getResultsForCandidate",
      "outputs": [
        {
          "name": "",
          "type": "uint256"
        }
      ],
      "payable": false,
      "stateMutability": "view",
      "type": "function"
    },
    {
      "constant": true,
      "inputs": [
        {
          "name": "candidate",
          "type": "bytes32"
        }
      ],
      "name": "validCandidate",
      "outputs": [
        {
          "name": "",
          "type": "bool"
        }
      ],
      "payable": false,
      "stateMutability": "view",
      "type": "function"
    }
  ],
  "bytecode": "0x608060405234801561001057600080fd5b50604051610771380380610771833981018060405281019080805190602001909291908051906020019092919080518201929190505050806002908051906020019061005d9291906100bd565b5033600360006101000a81548173ffffffffffffffffffffffffffffffffffffffff021916908373ffffffffffffffffffffffffffffffffffffffff16021790555082600481600019169055508160058160001916905550505050610135565b8280548282559060005260206000209081019282156100ff579160200282015b828111156100fe5782518290600019169055916020019190600101906100dd565b5b50905061010c9190610110565b5090565b61013291905b8082111561012e576000816000905550600101610116565b5090565b90565b61062d806101446000396000f3006080604052600436106100a4576000357c0100000000000000000000000000000000000000000000000000000000900463ffffffff16806306a49fce146100a95780630eb160931461011557806317d7de7c146101b25780631a092541146101e5578063392e6678146102185780635b4a37131461026157806387f7b975146102a2578063a69beaba146102f9578063b13c744b14610342578063e44df1bc1461038b575b600080fd5b3480156100b557600080fd5b506100be6103e2565b6040518080602001828103825283818151815260200191508051906020019060200280838360005b838110156101015780820151818401526020810190506100e6565b505050509050019250505060405180910390f35b34801561012157600080fd5b50610156600480360381019080803573ffffffffffffffffffffffffffffffffffffffff16906020019092919050505061043e565b604051808473ffffffffffffffffffffffffffffffffffffffff1673ffffffffffffffffffffffffffffffffffffffff168152602001836000191660001916815260200182151515158152602001935050505060405180910390f35b3480156101be57600080fd5b506101c7610495565b60405180826000191660001916815260200191505060405180910390f35b3480156101f157600080fd5b506101fa61049f565b60405180826000191660001916815260200191505060405180910390f35b34801561022457600080fd5b5061024760048036038101908080356000191690602001909291905050506104a9565b604051808215151515815260200191505060405180910390f35b34801561026d57600080fd5b5061028c60048036038101908080359060200190929190505050610508565b6040518082815260200191505060405180910390f35b3480156102ae57600080fd5b506102b7610546565b604051808273ffffffffffffffffffffffffffffffffffffffff1673ffffffffffffffffffffffffffffffffffffffff16815260200191505060405180910390f35b34801561030557600080fd5b50610328600480360381019080803560001916906020019092919050505061056c565b604051808215151515815260200191505060405180910390f35b34801561034e57600080fd5b5061036d600480360381019080803590602001909291905050506105b4565b60405180826000191660001916815260200191505060405180910390f35b34801561039757600080fd5b506103a06105d7565b604051808273ffffffffffffffffffffffffffffffffffffffff1673ffffffffffffffffffffffffffffffffffffffff16815260200191505060405180910390f35b6060600280548060200260200160405190810160405280929190818152602001828054801561043457602002820191906000526020600020905b8154600019168152602001906001019080831161041c575b5050505050905090565b60006020528060005260406000206000915090508060000160009054906101000a900473ffffffffffffffffffffffffffffffffffffffff16908060010154908060020160009054906101000a900460ff16905083565b6000600454905090565b6000600554905090565b600080600090505b6002805490508110156104fd5782600019166002828154811015156104d257fe5b90600052602060002001546000191614156104f05760019150610502565b80806001019150506104b1565b600091505b50919050565b60006001600060028481548110151561051d57fe5b906000526020600020015460001916600019168152602001908152602001600020549050919050565b600360009054906101000a900473ffffffffffffffffffffffffffffffffffffffff1681565b6000610577826104a9565b151561058257600080fd5b600180600084600019166000191681526020019081526020016000206000828254019250508190555060019050919050565b6002818154811015156105c357fe5b906000526020600020016000915090505481565b6000600360009054906101000a900473ffffffffffffffffffffffffffffffffffffffff169050905600a165627a7a72305820da4ca3a90fdf5dee3112b88e71c2acde070fbdb9f3ca47bd9904ea059e959d8f0029",
  "source": "pragma solidity ^0.4.22;\r\n\r\ncontract VotingContract {\r\n\r\n\tstruct Voter {\r\n\t\taddress voterAddress;\r\n\t\tbytes32 candidateVotedFor;\r\n\t\tbool exists;\r\n\t}\r\n\t\r\n\tmapping(address => Voter) public voterStructs;\r\n\t\r\n\tmapping(bytes32 => uint) voteTracker;\r\n\t\r\n\t\t// the list of candidates\r\n    bytes32[] public candidateList;\r\n\t\r\n\t// the address of the node who initiated the poll\r\n    address public chairman;\r\n\r\n\tbytes32 name;\r\n\r\n\tbytes32 description;\r\n\t\r\n    constructor(bytes32 _name, bytes32 _description, bytes32[] _candidateList) public {\r\n        candidateList = _candidateList;\r\n        chairman = msg.sender;\r\n\t\tname = _name;\r\n\t\tdescription = _description;\r\n    }\r\n\r\n\tfunction getName() view public returns(bytes32) {\r\n\t\treturn name;\r\n\t}\r\n\r\n\tfunction getDescription() view public returns(bytes32) {\r\n\t\treturn description;\r\n\t}\r\n\t\r\n    function getCandidates() view public returns (bytes32[]) {\r\n        return candidateList;\r\n    }\r\n\t\r\n\tfunction getChairmanAddress() view public returns (address) {\r\n\t\treturn chairman;\r\n\t}\r\n\t\r\n\tfunction vote(bytes32 candidate) public returns (bool) {\r\n\t\t// for now just increment the count\r\n\t\trequire(validCandidate(candidate));\r\n\t\tvoteTracker[candidate] += 1;\r\n\t\treturn true;\r\n\t\t// TODO -  future state\r\n\t\t// if (!voterStructs[msg.sender].exists) {\r\n\t\t// \tvoterStructs[msg.sender] = Voter(msg.sender, candidate, true);\r\n\t\t// \tvoteTracker[candidate] += 1;\r\n\t\t// \treturn true;\r\n\t\t// }\r\n\t\t// return false;\r\n\t}\r\n\r\n\tfunction getResultsForCandidate(uint index) view public returns (uint) {\r\n\t\treturn voteTracker[candidateList[index]];\r\n\t}\r\n\t\r\n\tfunction validCandidate(bytes32 candidate) view public returns (bool) {\r\n\t\tfor (uint i = 0; i < candidateList.length; i++) {\r\n\t\t\t  if (candidateList[i] == candidate) {\r\n                return true;\r\n            }\r\n\t\t}\r\n\t\treturn false;\r\n\t}\t\r\n}",
  "sourcePath": "D:\\work\\BlockVoter\\block-voter-ui\\truffle\\contracts\\VotingContract.sol",
  "compiler": {
    "name": "solc",
    "version": "0.4.24+commit.e67f0147.Emscripten.clang"
  },
  "schemaVersion": "2.0.1",
  "updatedAt": "2018-09-06T14:07:35.775Z"
}